{
  "_format": "hh-sol-artifact-1",
  "contractName": "TicketNFT",
  "sourceName": "contracts/TicketNFT.sol",
  "abi": [
    {
      "inputs": [
        {
          "internalType": "address",
          "name": "_sellBackAddress",
          "type": "address"
        }
      ],
      "stateMutability": "nonpayable",
      "type": "constructor"
    },
    {
      "anonymous": false,
      "inputs": [
        {
          "indexed": true,
          "internalType": "address",
          "name": "owner",
          "type": "address"
        },
        {
          "indexed": true,
          "internalType": "address",
          "name": "approved",
          "type": "address"
        },
        {
          "indexed": true,
          "internalType": "uint256",
          "name": "tokenId",
          "type": "uint256"
        }
      ],
      "name": "Approval",
      "type": "event"
    },
    {
      "anonymous": false,
      "inputs": [
        {
          "indexed": true,
          "internalType": "address",
          "name": "owner",
          "type": "address"
        },
        {
          "indexed": true,
          "internalType": "address",
          "name": "operator",
          "type": "address"
        },
        {
          "indexed": false,
          "internalType": "bool",
          "name": "approved",
          "type": "bool"
        }
      ],
      "name": "ApprovalForAll",
      "type": "event"
    },
    {
      "anonymous": false,
      "inputs": [
        {
          "indexed": true,
          "internalType": "address",
          "name": "previousOwner",
          "type": "address"
        },
        {
          "indexed": true,
          "internalType": "address",
          "name": "newOwner",
          "type": "address"
        }
      ],
      "name": "OwnershipTransferred",
      "type": "event"
    },
    {
      "anonymous": false,
      "inputs": [
        {
          "indexed": true,
          "internalType": "address",
          "name": "from",
          "type": "address"
        },
        {
          "indexed": true,
          "internalType": "address",
          "name": "to",
          "type": "address"
        },
        {
          "indexed": true,
          "internalType": "uint256",
          "name": "tokenId",
          "type": "uint256"
        }
      ],
      "name": "Transfer",
      "type": "event"
    },
    {
      "inputs": [
        {
          "internalType": "address",
          "name": "to",
          "type": "address"
        },
        {
          "internalType": "uint256",
          "name": "tokenId",
          "type": "uint256"
        }
      ],
      "name": "approve",
      "outputs": [],
      "stateMutability": "nonpayable",
      "type": "function"
    },
    {
      "inputs": [
        {
          "internalType": "address",
          "name": "owner",
          "type": "address"
        }
      ],
      "name": "balanceOf",
      "outputs": [
        {
          "internalType": "uint256",
          "name": "",
          "type": "uint256"
        }
      ],
      "stateMutability": "view",
      "type": "function"
    },
    {
      "inputs": [
        {
          "internalType": "uint256",
          "name": "tokenId",
          "type": "uint256"
        }
      ],
      "name": "getApproved",
      "outputs": [
        {
          "internalType": "address",
          "name": "",
          "type": "address"
        }
      ],
      "stateMutability": "view",
      "type": "function"
    },
    {
      "inputs": [
        {
          "internalType": "address",
          "name": "owner",
          "type": "address"
        },
        {
          "internalType": "address",
          "name": "operator",
          "type": "address"
        }
      ],
      "name": "isApprovedForAll",
      "outputs": [
        {
          "internalType": "bool",
          "name": "",
          "type": "bool"
        }
      ],
      "stateMutability": "view",
      "type": "function"
    },
    {
      "inputs": [
        {
          "internalType": "address",
          "name": "to",
          "type": "address"
        },
        {
          "internalType": "uint256",
          "name": "tokenId",
          "type": "uint256"
        },
        {
          "internalType": "string",
          "name": "aadharId",
          "type": "string"
        },
        {
          "internalType": "string",
          "name": "pictureHash",
          "type": "string"
        }
      ],
      "name": "mintTicket",
      "outputs": [],
      "stateMutability": "nonpayable",
      "type": "function"
    },
    {
      "inputs": [],
      "name": "name",
      "outputs": [
        {
          "internalType": "string",
          "name": "",
          "type": "string"
        }
      ],
      "stateMutability": "view",
      "type": "function"
    },
    {
      "inputs": [],
      "name": "owner",
      "outputs": [
        {
          "internalType": "address",
          "name": "",
          "type": "address"
        }
      ],
      "stateMutability": "view",
      "type": "function"
    },
    {
      "inputs": [
        {
          "internalType": "uint256",
          "name": "tokenId",
          "type": "uint256"
        }
      ],
      "name": "ownerOf",
      "outputs": [
        {
          "internalType": "address",
          "name": "",
          "type": "address"
        }
      ],
      "stateMutability": "view",
      "type": "function"
    },
    {
      "inputs": [],
      "name": "renounceOwnership",
      "outputs": [],
      "stateMutability": "nonpayable",
      "type": "function"
    },
    {
      "inputs": [
        {
          "internalType": "address",
          "name": "from",
          "type": "address"
        },
        {
          "internalType": "address",
          "name": "to",
          "type": "address"
        },
        {
          "internalType": "uint256",
          "name": "tokenId",
          "type": "uint256"
        }
      ],
      "name": "safeTransferFrom",
      "outputs": [],
      "stateMutability": "nonpayable",
      "type": "function"
    },
    {
      "inputs": [
        {
          "internalType": "address",
          "name": "from",
          "type": "address"
        },
        {
          "internalType": "address",
          "name": "to",
          "type": "address"
        },
        {
          "internalType": "uint256",
          "name": "tokenId",
          "type": "uint256"
        },
        {
          "internalType": "bytes",
          "name": "_data",
          "type": "bytes"
        }
      ],
      "name": "safeTransferFrom",
      "outputs": [],
      "stateMutability": "nonpayable",
      "type": "function"
    },
    {
      "inputs": [],
      "name": "sellBackAddress",
      "outputs": [
        {
          "internalType": "address",
          "name": "",
          "type": "address"
        }
      ],
      "stateMutability": "view",
      "type": "function"
    },
    {
      "inputs": [
        {
          "internalType": "address",
          "name": "operator",
          "type": "address"
        },
        {
          "internalType": "bool",
          "name": "approved",
          "type": "bool"
        }
      ],
      "name": "setApprovalForAll",
      "outputs": [],
      "stateMutability": "nonpayable",
      "type": "function"
    },
    {
      "inputs": [
        {
          "internalType": "bytes4",
          "name": "interfaceId",
          "type": "bytes4"
        }
      ],
      "name": "supportsInterface",
      "outputs": [
        {
          "internalType": "bool",
          "name": "",
          "type": "bool"
        }
      ],
      "stateMutability": "view",
      "type": "function"
    },
    {
      "inputs": [],
      "name": "symbol",
      "outputs": [
        {
          "internalType": "string",
          "name": "",
          "type": "string"
        }
      ],
      "stateMutability": "view",
      "type": "function"
    },
    {
      "inputs": [
        {
          "internalType": "uint256",
          "name": "",
          "type": "uint256"
        }
      ],
      "name": "tickets",
      "outputs": [
        {
          "internalType": "string",
          "name": "aadharId",
          "type": "string"
        },
        {
          "internalType": "string",
          "name": "pictureHash",
          "type": "string"
        }
      ],
      "stateMutability": "view",
      "type": "function"
    },
    {
      "inputs": [
        {
          "internalType": "uint256",
          "name": "tokenId",
          "type": "uint256"
        }
      ],
      "name": "tokenURI",
      "outputs": [
        {
          "internalType": "string",
          "name": "",
          "type": "string"
        }
      ],
      "stateMutability": "view",
      "type": "function"
    },
    {
      "inputs": [
        {
          "internalType": "address",
          "name": "from",
          "type": "address"
        },
        {
          "internalType": "address",
          "name": "to",
          "type": "address"
        },
        {
          "internalType": "uint256",
          "name": "tokenId",
          "type": "uint256"
        }
      ],
      "name": "transferFrom",
      "outputs": [],
      "stateMutability": "nonpayable",
      "type": "function"
    },
    {
      "inputs": [
        {
          "internalType": "address",
          "name": "newOwner",
          "type": "address"
        }
      ],
      "name": "transferOwnership",
      "outputs": [],
      "stateMutability": "nonpayable",
      "type": "function"
    }
  ],
  "bytecode": "0x60806040523480156200001157600080fd5b50604051620035b7380380620035b7833981810160405281019062000037919062000269565b6040518060400160405280600b81526020017f4576656e745469636b65740000000000000000000000000000000000000000008152506040518060400160405280600381526020017f544b5400000000000000000000000000000000000000000000000000000000008152508160009081620000b4919062000515565b508060019081620000c6919062000515565b505050620000e9620000dd6200013160201b60201c565b6200013960201b60201c565b80600860006101000a81548173ffffffffffffffffffffffffffffffffffffffff021916908373ffffffffffffffffffffffffffffffffffffffff16021790555050620005fc565b600033905090565b6000600660009054906101000a900473ffffffffffffffffffffffffffffffffffffffff16905081600660006101000a81548173ffffffffffffffffffffffffffffffffffffffff021916908373ffffffffffffffffffffffffffffffffffffffff1602179055508173ffffffffffffffffffffffffffffffffffffffff168173ffffffffffffffffffffffffffffffffffffffff167f8be0079c531659141344cd1fd0a4f28419497f9722a3daafe3b4186f6b6457e060405160405180910390a35050565b600080fd5b600073ffffffffffffffffffffffffffffffffffffffff82169050919050565b6000620002318262000204565b9050919050565b620002438162000224565b81146200024f57600080fd5b50565b600081519050620002638162000238565b92915050565b600060208284031215620002825762000281620001ff565b5b6000620002928482850162000252565b91505092915050565b600081519050919050565b7f4e487b7100000000000000000000000000000000000000000000000000000000600052604160045260246000fd5b7f4e487b7100000000000000000000000000000000000000000000000000000000600052602260045260246000fd5b600060028204905060018216806200031d57607f821691505b602082108103620003335762000332620002d5565b5b50919050565b60008190508160005260206000209050919050565b60006020601f8301049050919050565b600082821b905092915050565b6000600883026200039d7fffffffffffffffffffffffffffffffffffffffffffffffffffffffffffffffff826200035e565b620003a986836200035e565b95508019841693508086168417925050509392505050565b6000819050919050565b6000819050919050565b6000620003f6620003f0620003ea84620003c1565b620003cb565b620003c1565b9050919050565b6000819050919050565b6200041283620003d5565b6200042a6200042182620003fd565b8484546200036b565b825550505050565b600090565b6200044162000432565b6200044e81848462000407565b505050565b5b8181101562000476576200046a60008262000437565b60018101905062000454565b5050565b601f821115620004c5576200048f8162000339565b6200049a846200034e565b81016020851015620004aa578190505b620004c2620004b9856200034e565b83018262000453565b50505b505050565b600082821c905092915050565b6000620004ea60001984600802620004ca565b1980831691505092915050565b6000620005058383620004d7565b9150826002028217905092915050565b62000520826200029b565b67ffffffffffffffff8111156200053c576200053b620002a6565b5b62000548825462000304565b620005558282856200047a565b600060209050601f8311600181146200058d576000841562000578578287015190505b620005848582620004f7565b865550620005f4565b601f1984166200059d8662000339565b60005b82811015620005c757848901518255600182019150602085019450602081019050620005a0565b86831015620005e75784890151620005e3601f891682620004d7565b8355505b6001600288020188555050505b505050505050565b612fab806200060c6000396000f3fe608060405234801561001057600080fd5b50600436106101215760003560e01c8063715018a6116100ad578063b914302311610071578063b914302314610307578063c87b56dd14610325578063d045376514610355578063e985e9c514610371578063f2fde38b146103a157610121565b8063715018a6146102895780638da5cb5b1461029357806395d89b41146102b1578063a22cb465146102cf578063b88d4fde146102eb57610121565b806323b872dd116100f457806323b872dd146101c057806342842e0e146101dc57806350b44712146101f85780636352211e1461022957806370a082311461025957610121565b806301ffc9a71461012657806306fdde0314610156578063081812fc14610174578063095ea7b3146101a4575b600080fd5b610140600480360381019061013b9190611d22565b6103bd565b60405161014d9190611d6a565b60405180910390f35b61015e61049f565b60405161016b9190611e15565b60405180910390f35b61018e60048036038101906101899190611e6d565b610531565b60405161019b9190611edb565b60405180910390f35b6101be60048036038101906101b99190611f22565b610577565b005b6101da60048036038101906101d59190611f62565b61068e565b005b6101f660048036038101906101f19190611f62565b61072e565b005b610212600480360381019061020d9190611e6d565b61074e565b604051610220929190611fb5565b60405180910390f35b610243600480360381019061023e9190611e6d565b610882565b6040516102509190611edb565b60405180910390f35b610273600480360381019061026e9190611fec565b610908565b6040516102809190612028565b60405180910390f35b6102916109bf565b005b61029b6109d3565b6040516102a89190611edb565b60405180910390f35b6102b96109fd565b6040516102c69190611e15565b60405180910390f35b6102e960048036038101906102e4919061206f565b610a8f565b005b610305600480360381019061030091906121e4565b610aa5565b005b61030f610b47565b60405161031c9190611edb565b60405180910390f35b61033f600480360381019061033a9190611e6d565b610b6d565b60405161034c9190611e15565b60405180910390f35b61036f600480360381019061036a9190612308565b610bd5565b005b61038b600480360381019061038691906123a7565b610c44565b6040516103989190611d6a565b60405180910390f35b6103bb60048036038101906103b69190611fec565b610cd8565b005b60007f80ac58cd000000000000000000000000000000000000000000000000000000007bffffffffffffffffffffffffffffffffffffffffffffffffffffffff1916827bffffffffffffffffffffffffffffffffffffffffffffffffffffffff1916148061048857507f5b5e139f000000000000000000000000000000000000000000000000000000007bffffffffffffffffffffffffffffffffffffffffffffffffffffffff1916827bffffffffffffffffffffffffffffffffffffffffffffffffffffffff1916145b80610498575061049782610d5b565b5b9050919050565b6060600080546104ae90612416565b80601f01602080910402602001604051908101604052809291908181526020018280546104da90612416565b80156105275780601f106104fc57610100808354040283529160200191610527565b820191906000526020600020905b81548152906001019060200180831161050a57829003601f168201915b5050505050905090565b600061053c82610dc5565b6004600083815260200190815260200160002060009054906101000a900473ffffffffffffffffffffffffffffffffffffffff169050919050565b600061058282610882565b90508073ffffffffffffffffffffffffffffffffffffffff168373ffffffffffffffffffffffffffffffffffffffff16036105f2576040517f08c379a00000000000000000000000000000000000000000000000000000000081526004016105e9906124b9565b60405180910390fd5b8073ffffffffffffffffffffffffffffffffffffffff16610611610e10565b73ffffffffffffffffffffffffffffffffffffffff161480610640575061063f8161063a610e10565b610c44565b5b61067f576040517f08c379a00000000000000000000000000000000000000000000000000000000081526004016106769061254b565b60405180910390fd5b6106898383610e18565b505050565b600860009054906101000a900473ffffffffffffffffffffffffffffffffffffffff1673ffffffffffffffffffffffffffffffffffffffff168273ffffffffffffffffffffffffffffffffffffffff161461071e576040517f08c379a0000000000000000000000000000000000000000000000000000000008152600401610715906125dd565b60405180910390fd5b610729838383610ed1565b505050565b61074983838360405180602001604052806000815250610aa5565b505050565b600760205280600052604060002060009150905080600001805461077190612416565b80601f016020809104026020016040519081016040528092919081815260200182805461079d90612416565b80156107ea5780601f106107bf576101008083540402835291602001916107ea565b820191906000526020600020905b8154815290600101906020018083116107cd57829003601f168201915b5050505050908060010180546107ff90612416565b80601f016020809104026020016040519081016040528092919081815260200182805461082b90612416565b80156108785780601f1061084d57610100808354040283529160200191610878565b820191906000526020600020905b81548152906001019060200180831161085b57829003601f168201915b5050505050905082565b60008061088e83610f31565b9050600073ffffffffffffffffffffffffffffffffffffffff168173ffffffffffffffffffffffffffffffffffffffff16036108ff576040517f08c379a00000000000000000000000000000000000000000000000000000000081526004016108f690612649565b60405180910390fd5b80915050919050565b60008073ffffffffffffffffffffffffffffffffffffffff168273ffffffffffffffffffffffffffffffffffffffff1603610978576040517f08c379a000000000000000000000000000000000000000000000000000000000815260040161096f906126db565b60405180910390fd5b600360008373ffffffffffffffffffffffffffffffffffffffff1673ffffffffffffffffffffffffffffffffffffffff168152602001908152602001600020549050919050565b6109c7610f6e565b6109d16000610fec565b565b6000600660009054906101000a900473ffffffffffffffffffffffffffffffffffffffff16905090565b606060018054610a0c90612416565b80601f0160208091040260200160405190810160405280929190818152602001828054610a3890612416565b8015610a855780601f10610a5a57610100808354040283529160200191610a85565b820191906000526020600020905b815481529060010190602001808311610a6857829003601f168201915b5050505050905090565b610aa1610a9a610e10565b83836110b2565b5050565b600860009054906101000a900473ffffffffffffffffffffffffffffffffffffffff1673ffffffffffffffffffffffffffffffffffffffff168373ffffffffffffffffffffffffffffffffffffffff1614610b35576040517f08c379a0000000000000000000000000000000000000000000000000000000008152600401610b2c906125dd565b60405180910390fd5b610b418484848461121e565b50505050565b600860009054906101000a900473ffffffffffffffffffffffffffffffffffffffff1681565b6060610b7882610dc5565b6000610b82611280565b90506000815111610ba25760405180602001604052806000815250610bcd565b80610bac84611297565b604051602001610bbd929190612737565b6040516020818303038152906040525b915050919050565b610bdd610f6e565b610be78484611365565b604051806040016040528083815260200182815250600760008581526020019081526020016000206000820151816000019081610c249190612907565b506020820151816001019081610c3a9190612907565b5090505050505050565b6000600560008473ffffffffffffffffffffffffffffffffffffffff1673ffffffffffffffffffffffffffffffffffffffff16815260200190815260200160002060008373ffffffffffffffffffffffffffffffffffffffff1673ffffffffffffffffffffffffffffffffffffffff16815260200190815260200160002060009054906101000a900460ff16905092915050565b610ce0610f6e565b600073ffffffffffffffffffffffffffffffffffffffff168173ffffffffffffffffffffffffffffffffffffffff1603610d4f576040517f08c379a0000000000000000000000000000000000000000000000000000000008152600401610d4690612a4b565b60405180910390fd5b610d5881610fec565b50565b60007f01ffc9a7000000000000000000000000000000000000000000000000000000007bffffffffffffffffffffffffffffffffffffffffffffffffffffffff1916827bffffffffffffffffffffffffffffffffffffffffffffffffffffffff1916149050919050565b610dce81611582565b610e0d576040517f08c379a0000000000000000000000000000000000000000000000000000000008152600401610e0490612649565b60405180910390fd5b50565b600033905090565b816004600083815260200190815260200160002060006101000a81548173ffffffffffffffffffffffffffffffffffffffff021916908373ffffffffffffffffffffffffffffffffffffffff160217905550808273ffffffffffffffffffffffffffffffffffffffff16610e8b83610882565b73ffffffffffffffffffffffffffffffffffffffff167f8c5be1e5ebec7d5bd14f71427d1e84f3dd0314c0f7b2291e5b200ac8c7c3b92560405160405180910390a45050565b610ee2610edc610e10565b826115c3565b610f21576040517f08c379a0000000000000000000000000000000000000000000000000000000008152600401610f1890612add565b60405180910390fd5b610f2c838383611658565b505050565b60006002600083815260200190815260200160002060009054906101000a900473ffffffffffffffffffffffffffffffffffffffff169050919050565b610f76610e10565b73ffffffffffffffffffffffffffffffffffffffff16610f946109d3565b73ffffffffffffffffffffffffffffffffffffffff1614610fea576040517f08c379a0000000000000000000000000000000000000000000000000000000008152600401610fe190612b49565b60405180910390fd5b565b6000600660009054906101000a900473ffffffffffffffffffffffffffffffffffffffff16905081600660006101000a81548173ffffffffffffffffffffffffffffffffffffffff021916908373ffffffffffffffffffffffffffffffffffffffff1602179055508173ffffffffffffffffffffffffffffffffffffffff168173ffffffffffffffffffffffffffffffffffffffff167f8be0079c531659141344cd1fd0a4f28419497f9722a3daafe3b4186f6b6457e060405160405180910390a35050565b8173ffffffffffffffffffffffffffffffffffffffff168373ffffffffffffffffffffffffffffffffffffffff1603611120576040517f08c379a000000000000000000000000000000000000000000000000000000000815260040161111790612bb5565b60405180910390fd5b80600560008573ffffffffffffffffffffffffffffffffffffffff1673ffffffffffffffffffffffffffffffffffffffff16815260200190815260200160002060008473ffffffffffffffffffffffffffffffffffffffff1673ffffffffffffffffffffffffffffffffffffffff16815260200190815260200160002060006101000a81548160ff0219169083151502179055508173ffffffffffffffffffffffffffffffffffffffff168373ffffffffffffffffffffffffffffffffffffffff167f17307eab39ab6107e8899845ad3d59bd9653f200f220920489ca2b5937696c31836040516112119190611d6a565b60405180910390a3505050565b61122f611229610e10565b836115c3565b61126e576040517f08c379a000000000000000000000000000000000000000000000000000000000815260040161126590612add565b60405180910390fd5b61127a84848484611951565b50505050565b606060405180602001604052806000815250905090565b6060600060016112a6846119ad565b01905060008167ffffffffffffffff8111156112c5576112c46120b9565b5b6040519080825280601f01601f1916602001820160405280156112f75781602001600182028036833780820191505090505b509050600082602001820190505b60011561135a578080600190039150507f3031323334353637383961626364656600000000000000000000000000000000600a86061a8153600a858161134e5761134d612bd5565b5b04945060008503611305575b819350505050919050565b600073ffffffffffffffffffffffffffffffffffffffff168273ffffffffffffffffffffffffffffffffffffffff16036113d4576040517f08c379a00000000000000000000000000000000000000000000000000000000081526004016113cb90612c50565b60405180910390fd5b6113dd81611582565b1561141d576040517f08c379a000000000000000000000000000000000000000000000000000000000815260040161141490612cbc565b60405180910390fd5b61142b600083836001611b00565b61143481611582565b15611474576040517f08c379a000000000000000000000000000000000000000000000000000000000815260040161146b90612cbc565b60405180910390fd5b6001600360008473ffffffffffffffffffffffffffffffffffffffff1673ffffffffffffffffffffffffffffffffffffffff16815260200190815260200160002060008282540192505081905550816002600083815260200190815260200160002060006101000a81548173ffffffffffffffffffffffffffffffffffffffff021916908373ffffffffffffffffffffffffffffffffffffffff160217905550808273ffffffffffffffffffffffffffffffffffffffff16600073ffffffffffffffffffffffffffffffffffffffff167fddf252ad1be2c89b69c2b068fc378daa952ba7f163c4a11628f55a4df523b3ef60405160405180910390a461157e600083836001611b06565b5050565b60008073ffffffffffffffffffffffffffffffffffffffff166115a483610f31565b73ffffffffffffffffffffffffffffffffffffffff1614159050919050565b6000806115cf83610882565b90508073ffffffffffffffffffffffffffffffffffffffff168473ffffffffffffffffffffffffffffffffffffffff16148061161157506116108185610c44565b5b8061164f57508373ffffffffffffffffffffffffffffffffffffffff1661163784610531565b73ffffffffffffffffffffffffffffffffffffffff16145b91505092915050565b8273ffffffffffffffffffffffffffffffffffffffff1661167882610882565b73ffffffffffffffffffffffffffffffffffffffff16146116ce576040517f08c379a00000000000000000000000000000000000000000000000000000000081526004016116c590612d4e565b60405180910390fd5b600073ffffffffffffffffffffffffffffffffffffffff168273ffffffffffffffffffffffffffffffffffffffff160361173d576040517f08c379a000000000000000000000000000000000000000000000000000000000815260040161173490612de0565b60405180910390fd5b61174a8383836001611b00565b8273ffffffffffffffffffffffffffffffffffffffff1661176a82610882565b73ffffffffffffffffffffffffffffffffffffffff16146117c0576040517f08c379a00000000000000000000000000000000000000000000000000000000081526004016117b790612d4e565b60405180910390fd5b6004600082815260200190815260200160002060006101000a81549073ffffffffffffffffffffffffffffffffffffffff02191690556001600360008573ffffffffffffffffffffffffffffffffffffffff1673ffffffffffffffffffffffffffffffffffffffff168152602001908152602001600020600082825403925050819055506001600360008473ffffffffffffffffffffffffffffffffffffffff1673ffffffffffffffffffffffffffffffffffffffff16815260200190815260200160002060008282540192505081905550816002600083815260200190815260200160002060006101000a81548173ffffffffffffffffffffffffffffffffffffffff021916908373ffffffffffffffffffffffffffffffffffffffff160217905550808273ffffffffffffffffffffffffffffffffffffffff168473ffffffffffffffffffffffffffffffffffffffff167fddf252ad1be2c89b69c2b068fc378daa952ba7f163c4a11628f55a4df523b3ef60405160405180910390a461194c8383836001611b06565b505050565b61195c848484611658565b61196884848484611b0c565b6119a7576040517f08c379a000000000000000000000000000000000000000000000000000000000815260040161199e90612e72565b60405180910390fd5b50505050565b600080600090507a184f03e93ff9f4daa797ed6e38ed64bf6a1f0100000000000000008310611a0b577a184f03e93ff9f4daa797ed6e38ed64bf6a1f0100000000000000008381611a0157611a00612bd5565b5b0492506040810190505b6d04ee2d6d415b85acef81000000008310611a48576d04ee2d6d415b85acef81000000008381611a3e57611a3d612bd5565b5b0492506020810190505b662386f26fc100008310611a7757662386f26fc100008381611a6d57611a6c612bd5565b5b0492506010810190505b6305f5e1008310611aa0576305f5e1008381611a9657611a95612bd5565b5b0492506008810190505b6127108310611ac5576127108381611abb57611aba612bd5565b5b0492506004810190505b60648310611ae85760648381611ade57611add612bd5565b5b0492506002810190505b600a8310611af7576001810190505b80915050919050565b50505050565b50505050565b6000611b2d8473ffffffffffffffffffffffffffffffffffffffff16611c93565b15611c86578373ffffffffffffffffffffffffffffffffffffffff1663150b7a02611b56610e10565b8786866040518563ffffffff1660e01b8152600401611b789493929190612ee7565b6020604051808303816000875af1925050508015611bb457506040513d601f19601f82011682018060405250810190611bb19190612f48565b60015b611c36573d8060008114611be4576040519150601f19603f3d011682016040523d82523d6000602084013e611be9565b606091505b506000815103611c2e576040517f08c379a0000000000000000000000000000000000000000000000000000000008152600401611c2590612e72565b60405180910390fd5b805181602001fd5b63150b7a0260e01b7bffffffffffffffffffffffffffffffffffffffffffffffffffffffff1916817bffffffffffffffffffffffffffffffffffffffffffffffffffffffff191614915050611c8b565b600190505b949350505050565b6000808273ffffffffffffffffffffffffffffffffffffffff163b119050919050565b6000604051905090565b600080fd5b600080fd5b60007fffffffff0000000000000000000000000000000000000000000000000000000082169050919050565b611cff81611cca565b8114611d0a57600080fd5b50565b600081359050611d1c81611cf6565b92915050565b600060208284031215611d3857611d37611cc0565b5b6000611d4684828501611d0d565b91505092915050565b60008115159050919050565b611d6481611d4f565b82525050565b6000602082019050611d7f6000830184611d5b565b92915050565b600081519050919050565b600082825260208201905092915050565b60005b83811015611dbf578082015181840152602081019050611da4565b60008484015250505050565b6000601f19601f8301169050919050565b6000611de782611d85565b611df18185611d90565b9350611e01818560208601611da1565b611e0a81611dcb565b840191505092915050565b60006020820190508181036000830152611e2f8184611ddc565b905092915050565b6000819050919050565b611e4a81611e37565b8114611e5557600080fd5b50565b600081359050611e6781611e41565b92915050565b600060208284031215611e8357611e82611cc0565b5b6000611e9184828501611e58565b91505092915050565b600073ffffffffffffffffffffffffffffffffffffffff82169050919050565b6000611ec582611e9a565b9050919050565b611ed581611eba565b82525050565b6000602082019050611ef06000830184611ecc565b92915050565b611eff81611eba565b8114611f0a57600080fd5b50565b600081359050611f1c81611ef6565b92915050565b60008060408385031215611f3957611f38611cc0565b5b6000611f4785828601611f0d565b9250506020611f5885828601611e58565b9150509250929050565b600080600060608486031215611f7b57611f7a611cc0565b5b6000611f8986828701611f0d565b9350506020611f9a86828701611f0d565b9250506040611fab86828701611e58565b9150509250925092565b60006040820190508181036000830152611fcf8185611ddc565b90508181036020830152611fe38184611ddc565b90509392505050565b60006020828403121561200257612001611cc0565b5b600061201084828501611f0d565b91505092915050565b61202281611e37565b82525050565b600060208201905061203d6000830184612019565b92915050565b61204c81611d4f565b811461205757600080fd5b50565b60008135905061206981612043565b92915050565b6000806040838503121561208657612085611cc0565b5b600061209485828601611f0d565b92505060206120a58582860161205a565b9150509250929050565b600080fd5b600080fd5b7f4e487b7100000000000000000000000000000000000000000000000000000000600052604160045260246000fd5b6120f182611dcb565b810181811067ffffffffffffffff821117156121105761210f6120b9565b5b80604052505050565b6000612123611cb6565b905061212f82826120e8565b919050565b600067ffffffffffffffff82111561214f5761214e6120b9565b5b61215882611dcb565b9050602081019050919050565b82818337600083830152505050565b600061218761218284612134565b612119565b9050828152602081018484840111156121a3576121a26120b4565b5b6121ae848285612165565b509392505050565b600082601f8301126121cb576121ca6120af565b5b81356121db848260208601612174565b91505092915050565b600080600080608085870312156121fe576121fd611cc0565b5b600061220c87828801611f0d565b945050602061221d87828801611f0d565b935050604061222e87828801611e58565b925050606085013567ffffffffffffffff81111561224f5761224e611cc5565b5b61225b878288016121b6565b91505092959194509250565b600067ffffffffffffffff821115612282576122816120b9565b5b61228b82611dcb565b9050602081019050919050565b60006122ab6122a684612267565b612119565b9050828152602081018484840111156122c7576122c66120b4565b5b6122d2848285612165565b509392505050565b600082601f8301126122ef576122ee6120af565b5b81356122ff848260208601612298565b91505092915050565b6000806000806080858703121561232257612321611cc0565b5b600061233087828801611f0d565b945050602061234187828801611e58565b935050604085013567ffffffffffffffff81111561236257612361611cc5565b5b61236e878288016122da565b925050606085013567ffffffffffffffff81111561238f5761238e611cc5565b5b61239b878288016122da565b91505092959194509250565b600080604083850312156123be576123bd611cc0565b5b60006123cc85828601611f0d565b92505060206123dd85828601611f0d565b9150509250929050565b7f4e487b7100000000000000000000000000000000000000000000000000000000600052602260045260246000fd5b6000600282049050600182168061242e57607f821691505b602082108103612441576124406123e7565b5b50919050565b7f4552433732313a20617070726f76616c20746f2063757272656e74206f776e6560008201527f7200000000000000000000000000000000000000000000000000000000000000602082015250565b60006124a3602183611d90565b91506124ae82612447565b604082019050919050565b600060208201905081810360008301526124d281612496565b9050919050565b7f4552433732313a20617070726f76652063616c6c6572206973206e6f7420746f60008201527f6b656e206f776e6572206f7220617070726f76656420666f7220616c6c000000602082015250565b6000612535603d83611d90565b9150612540826124d9565b604082019050919050565b6000602082019050818103600083015261256481612528565b9050919050565b7f5469636b6574732063616e206f6e6c7920626520736f6c64206261636b20746f60008201527f2074686520737065636966696564206164647265737300000000000000000000602082015250565b60006125c7603683611d90565b91506125d28261256b565b604082019050919050565b600060208201905081810360008301526125f6816125ba565b9050919050565b7f4552433732313a20696e76616c696420746f6b656e2049440000000000000000600082015250565b6000612633601883611d90565b915061263e826125fd565b602082019050919050565b6000602082019050818103600083015261266281612626565b9050919050565b7f4552433732313a2061646472657373207a65726f206973206e6f74206120766160008201527f6c6964206f776e65720000000000000000000000000000000000000000000000602082015250565b60006126c5602983611d90565b91506126d082612669565b604082019050919050565b600060208201905081810360008301526126f4816126b8565b9050919050565b600081905092915050565b600061271182611d85565b61271b81856126fb565b935061272b818560208601611da1565b80840191505092915050565b60006127438285612706565b915061274f8284612706565b91508190509392505050565b60008190508160005260206000209050919050565b60006020601f8301049050919050565b600082821b905092915050565b6000600883026127bd7fffffffffffffffffffffffffffffffffffffffffffffffffffffffffffffffff82612780565b6127c78683612780565b95508019841693508086168417925050509392505050565b6000819050919050565b60006128046127ff6127fa84611e37565b6127df565b611e37565b9050919050565b6000819050919050565b61281e836127e9565b61283261282a8261280b565b84845461278d565b825550505050565b600090565b61284761283a565b612852818484612815565b505050565b5b818110156128765761286b60008261283f565b600181019050612858565b5050565b601f8211156128bb5761288c8161275b565b61289584612770565b810160208510156128a4578190505b6128b86128b085612770565b830182612857565b50505b505050565b600082821c905092915050565b60006128de600019846008026128c0565b1980831691505092915050565b60006128f783836128cd565b9150826002028217905092915050565b61291082611d85565b67ffffffffffffffff811115612929576129286120b9565b5b6129338254612416565b61293e82828561287a565b600060209050601f831160018114612971576000841561295f578287015190505b61296985826128eb565b8655506129d1565b601f19841661297f8661275b565b60005b828110156129a757848901518255600182019150602085019450602081019050612982565b868310156129c457848901516129c0601f8916826128cd565b8355505b6001600288020188555050505b505050505050565b7f4f776e61626c653a206e6577206f776e657220697320746865207a65726f206160008201527f6464726573730000000000000000000000000000000000000000000000000000602082015250565b6000612a35602683611d90565b9150612a40826129d9565b604082019050919050565b60006020820190508181036000830152612a6481612a28565b9050919050565b7f4552433732313a2063616c6c6572206973206e6f7420746f6b656e206f776e6560008201527f72206f7220617070726f76656400000000000000000000000000000000000000602082015250565b6000612ac7602d83611d90565b9150612ad282612a6b565b604082019050919050565b60006020820190508181036000830152612af681612aba565b9050919050565b7f4f776e61626c653a2063616c6c6572206973206e6f7420746865206f776e6572600082015250565b6000612b33602083611d90565b9150612b3e82612afd565b602082019050919050565b60006020820190508181036000830152612b6281612b26565b9050919050565b7f4552433732313a20617070726f766520746f2063616c6c657200000000000000600082015250565b6000612b9f601983611d90565b9150612baa82612b69565b602082019050919050565b60006020820190508181036000830152612bce81612b92565b9050919050565b7f4e487b7100000000000000000000000000000000000000000000000000000000600052601260045260246000fd5b7f4552433732313a206d696e7420746f20746865207a65726f2061646472657373600082015250565b6000612c3a602083611d90565b9150612c4582612c04565b602082019050919050565b60006020820190508181036000830152612c6981612c2d565b9050919050565b7f4552433732313a20746f6b656e20616c7265616479206d696e74656400000000600082015250565b6000612ca6601c83611d90565b9150612cb182612c70565b602082019050919050565b60006020820190508181036000830152612cd581612c99565b9050919050565b7f4552433732313a207472616e736665722066726f6d20696e636f72726563742060008201527f6f776e6572000000000000000000000000000000000000000000000000000000602082015250565b6000612d38602583611d90565b9150612d4382612cdc565b604082019050919050565b60006020820190508181036000830152612d6781612d2b565b9050919050565b7f4552433732313a207472616e7366657220746f20746865207a65726f2061646460008201527f7265737300000000000000000000000000000000000000000000000000000000602082015250565b6000612dca602483611d90565b9150612dd582612d6e565b604082019050919050565b60006020820190508181036000830152612df981612dbd565b9050919050565b7f4552433732313a207472616e7366657220746f206e6f6e20455243373231526560008201527f63656976657220696d706c656d656e7465720000000000000000000000000000602082015250565b6000612e5c603283611d90565b9150612e6782612e00565b604082019050919050565b60006020820190508181036000830152612e8b81612e4f565b9050919050565b600081519050919050565b600082825260208201905092915050565b6000612eb982612e92565b612ec38185612e9d565b9350612ed3818560208601611da1565b612edc81611dcb565b840191505092915050565b6000608082019050612efc6000830187611ecc565b612f096020830186611ecc565b612f166040830185612019565b8181036060830152612f288184612eae565b905095945050505050565b600081519050612f4281611cf6565b92915050565b600060208284031215612f5e57612f5d611cc0565b5b6000612f6c84828501612f33565b9150509291505056fea2646970667358221220d860f460a51f50c56be8d1ecbc86a0436496c6d6f7e6b843b684bfd7cdc1e19564736f6c63430008110033",
  "linkReferences": {},
  "deployedLinkReferences": {}
}